{
  "_format": "hh-sol-artifact-1",
  "contractName": "LendingProtocol",
  "sourceName": "contracts/LendingProtocol.sol",
  "abi": [
    {
      "inputs": [
        {
          "internalType": "address",
          "name": "_collateralToken",
          "type": "address"
        },
        {
          "internalType": "address",
          "name": "_loanToken",
          "type": "address"
        }
      ],
      "stateMutability": "nonpayable",
      "type": "constructor"
    },
    {
      "anonymous": false,
      "inputs": [
        {
          "indexed": true,
          "internalType": "address",
          "name": "user",
          "type": "address"
        },
        {
          "indexed": false,
          "internalType": "uint256",
          "name": "amount",
          "type": "uint256"
        }
      ],
      "name": "Borrowed",
      "type": "event"
    },
    {
      "anonymous": false,
      "inputs": [
        {
          "indexed": true,
          "internalType": "address",
          "name": "user",
          "type": "address"
        },
        {
          "indexed": false,
          "internalType": "uint256",
          "name": "amount",
          "type": "uint256"
        }
      ],
      "name": "Deposited",
      "type": "event"
    },
    {
      "anonymous": false,
      "inputs": [
        {
          "indexed": true,
          "internalType": "address",
          "name": "user",
          "type": "address"
        },
        {
          "indexed": false,
          "internalType": "uint256",
          "name": "amount",
          "type": "uint256"
        }
      ],
      "name": "Repaid",
      "type": "event"
    },
    {
      "anonymous": false,
      "inputs": [
        {
          "indexed": true,
          "internalType": "address",
          "name": "user",
          "type": "address"
        },
        {
          "indexed": false,
          "internalType": "uint256",
          "name": "amount",
          "type": "uint256"
        }
      ],
      "name": "Withdrawn",
      "type": "event"
    },
    {
      "inputs": [],
      "name": "COLLATERAL_RATIO",
      "outputs": [
        {
          "internalType": "uint256",
          "name": "",
          "type": "uint256"
        }
      ],
      "stateMutability": "view",
      "type": "function"
    },
    {
      "inputs": [],
      "name": "INTEREST_RATE",
      "outputs": [
        {
          "internalType": "uint256",
          "name": "",
          "type": "uint256"
        }
      ],
      "stateMutability": "view",
      "type": "function"
    },
    {
      "inputs": [
        {
          "internalType": "uint256",
          "name": "amount",
          "type": "uint256"
        }
      ],
      "name": "borrow",
      "outputs": [],
      "stateMutability": "nonpayable",
      "type": "function"
    },
    {
      "inputs": [],
      "name": "collateralToken",
      "outputs": [
        {
          "internalType": "contract IERC20",
          "name": "",
          "type": "address"
        }
      ],
      "stateMutability": "view",
      "type": "function"
    },
    {
      "inputs": [
        {
          "internalType": "uint256",
          "name": "amount",
          "type": "uint256"
        }
      ],
      "name": "depositCollateral",
      "outputs": [],
      "stateMutability": "nonpayable",
      "type": "function"
    },
    {
      "inputs": [
        {
          "internalType": "address",
          "name": "user",
          "type": "address"
        }
      ],
      "name": "getUserPosition",
      "outputs": [
        {
          "internalType": "uint256",
          "name": "collateral",
          "type": "uint256"
        },
        {
          "internalType": "uint256",
          "name": "debt",
          "type": "uint256"
        },
        {
          "internalType": "uint256",
          "name": "interest",
          "type": "uint256"
        }
      ],
      "stateMutability": "view",
      "type": "function"
    },
    {
      "inputs": [],
      "name": "loanToken",
      "outputs": [
        {
          "internalType": "contract IERC20",
          "name": "",
          "type": "address"
        }
      ],
      "stateMutability": "view",
      "type": "function"
    },
    {
      "inputs": [
        {
          "internalType": "address",
          "name": "",
          "type": "address"
        }
      ],
      "name": "positions",
      "outputs": [
        {
          "internalType": "uint256",
          "name": "collateral",
          "type": "uint256"
        },
        {
          "internalType": "uint256",
          "name": "debt",
          "type": "uint256"
        },
        {
          "internalType": "uint256",
          "name": "lastUpdated",
          "type": "uint256"
        }
      ],
      "stateMutability": "view",
      "type": "function"
    },
    {
      "inputs": [],
      "name": "repay",
      "outputs": [],
      "stateMutability": "nonpayable",
      "type": "function"
    },
    {
      "inputs": [],
      "name": "withdrawCollateral",
      "outputs": [],
      "stateMutability": "nonpayable",
      "type": "function"
    }
  ],
  "bytecode": "0x60c060405234801561001057600080fd5b506040516114f73803806114f783398181016040528101906100329190610104565b8173ffffffffffffffffffffffffffffffffffffffff1660808173ffffffffffffffffffffffffffffffffffffffff16815250508073ffffffffffffffffffffffffffffffffffffffff1660a08173ffffffffffffffffffffffffffffffffffffffff16815250505050610144565b600080fd5b600073ffffffffffffffffffffffffffffffffffffffff82169050919050565b60006100d1826100a6565b9050919050565b6100e1816100c6565b81146100ec57600080fd5b50565b6000815190506100fe816100d8565b92915050565b6000806040838503121561011b5761011a6100a1565b5b6000610129858286016100ef565b925050602061013a858286016100ef565b9150509250929050565b60805160a05161136b61018c600039600081816101cd015281816102970152818161093c0152610ab5015260008181610509015281816106d501526106f9015261136b6000f3fe608060405234801561001057600080fd5b506004361061009e5760003560e01c80635b7c2dad116100665780635b7c2dad14610125578063b2016bd414610157578063bad4a01f14610175578063c5ebeaec14610191578063d9e69a05146101ad5761009e565b806306d37817146100a3578063402d8883146100c157806355f57510146100cb57806359c153be146100fd5780635b72a33a14610107575b600080fd5b6100ab6101cb565b6040516100b89190610d4f565b60405180910390f35b6100c96101ef565b005b6100e560048036038101906100e09190610dad565b6103d0565b6040516100f493929190610df3565b60405180910390f35b6101056103fa565b005b61010f61063e565b60405161011c9190610e2a565b60405180910390f35b61013f600480360381019061013a9190610dad565b610643565b60405161014e93929190610df3565b60405180910390f35b61015f6106d3565b60405161016c9190610d4f565b60405180910390f35b61018f600480360381019061018a9190610e71565b6106f7565b005b6101ab60048036038101906101a69190610e71565b610887565b005b6101b5610ba5565b6040516101c29190610e2a565b60405180910390f35b7f000000000000000000000000000000000000000000000000000000000000000081565b60008060003373ffffffffffffffffffffffffffffffffffffffff1673ffffffffffffffffffffffffffffffffffffffff16815260200190815260200160002060010154905060008111610278576040517f08c379a000000000000000000000000000000000000000000000000000000000815260040161026f90610efb565b60405180910390fd5b600061028333610baa565b9050600081836102939190610f4a565b90507f000000000000000000000000000000000000000000000000000000000000000073ffffffffffffffffffffffffffffffffffffffff166323b872dd3330846040518463ffffffff1660e01b81526004016102f293929190610f8d565b6020604051808303816000875af1158015610311573d6000803e3d6000fd5b505050506040513d601f19601f820116820180604052508101906103359190610ffc565b5060008060003373ffffffffffffffffffffffffffffffffffffffff1673ffffffffffffffffffffffffffffffffffffffff168152602001908152602001600020600101819055503373ffffffffffffffffffffffffffffffffffffffff167f0516911bcc3a0a7412a44601057c0a0a1ec628bde049a84284bc428866534488826040516103c39190610e2a565b60405180910390a2505050565b60006020528060005260406000206000915090508060000154908060010154908060020154905083565b60008060003373ffffffffffffffffffffffffffffffffffffffff1673ffffffffffffffffffffffffffffffffffffffff168152602001908152602001600020600101541461047e576040517f08c379a000000000000000000000000000000000000000000000000000000000815260040161047590611075565b60405180910390fd5b60008060003373ffffffffffffffffffffffffffffffffffffffff1673ffffffffffffffffffffffffffffffffffffffff16815260200190815260200160002060000154905060008111610507576040517f08c379a00000000000000000000000000000000000000000000000000000000081526004016104fe906110e1565b60405180910390fd5b7f000000000000000000000000000000000000000000000000000000000000000073ffffffffffffffffffffffffffffffffffffffff1663a9059cbb33836040518363ffffffff1660e01b8152600401610562929190611101565b6020604051808303816000875af1158015610581573d6000803e3d6000fd5b505050506040513d601f19601f820116820180604052508101906105a59190610ffc565b5060008060003373ffffffffffffffffffffffffffffffffffffffff1673ffffffffffffffffffffffffffffffffffffffff168152602001908152602001600020600001819055503373ffffffffffffffffffffffffffffffffffffffff167f7084f5476618d8e60b11ef0d7d3f06914655adb8793e28ff7f018d4c76d505d5826040516106339190610e2a565b60405180910390a250565b600581565b6000806000806000808673ffffffffffffffffffffffffffffffffffffffff1673ffffffffffffffffffffffffffffffffffffffff16815260200190815260200160002060405180606001604052908160008201548152602001600182015481526020016002820154815250509050806000015181602001516106c587610baa565b935093509350509193909250565b7f000000000000000000000000000000000000000000000000000000000000000081565b7f000000000000000000000000000000000000000000000000000000000000000073ffffffffffffffffffffffffffffffffffffffff166323b872dd3330846040518463ffffffff1660e01b815260040161075493929190610f8d565b6020604051808303816000875af1158015610773573d6000803e3d6000fd5b505050506040513d601f19601f820116820180604052508101906107979190610ffc565b50806000803373ffffffffffffffffffffffffffffffffffffffff1673ffffffffffffffffffffffffffffffffffffffff16815260200190815260200160002060000160008282546107e99190610f4a565b92505081905550426000803373ffffffffffffffffffffffffffffffffffffffff1673ffffffffffffffffffffffffffffffffffffffff168152602001908152602001600020600201819055503373ffffffffffffffffffffffffffffffffffffffff167f2da466a7b24304f47e87fa2e1e5a81b9831ce54fec19055ce277ca2f39ba42c48260405161087c9190610e2a565b60405180910390a250565b600060016000803373ffffffffffffffffffffffffffffffffffffffff1673ffffffffffffffffffffffffffffffffffffffff168152602001908152602001600020600001546108d7919061112a565b9050600060646096846108ea919061112a565b6108f4919061119b565b905080821015610939576040517f08c379a000000000000000000000000000000000000000000000000000000000815260040161093090611218565b60405180910390fd5b827f000000000000000000000000000000000000000000000000000000000000000073ffffffffffffffffffffffffffffffffffffffff166370a08231306040518263ffffffff1660e01b81526004016109939190611238565b602060405180830381865afa1580156109b0573d6000803e3d6000fd5b505050506040513d601f19601f820116820180604052508101906109d49190611268565b1015610a15576040517f08c379a0000000000000000000000000000000000000000000000000000000008152600401610a0c906112e1565b60405180910390fd5b826000803373ffffffffffffffffffffffffffffffffffffffff1673ffffffffffffffffffffffffffffffffffffffff1681526020019081526020016000206001016000828254610a669190610f4a565b92505081905550426000803373ffffffffffffffffffffffffffffffffffffffff1673ffffffffffffffffffffffffffffffffffffffff168152602001908152602001600020600201819055507f000000000000000000000000000000000000000000000000000000000000000073ffffffffffffffffffffffffffffffffffffffff1663a9059cbb33856040518363ffffffff1660e01b8152600401610b0e929190611101565b6020604051808303816000875af1158015610b2d573d6000803e3d6000fd5b505050506040513d601f19601f82011682018060405250810190610b519190610ffc565b503373ffffffffffffffffffffffffffffffffffffffff167fac59582e5396aca512fa873a2047e7f4c80f8f55d4a06cb34a78a0187f62719f84604051610b989190610e2a565b60405180910390a2505050565b609681565b6000806000808473ffffffffffffffffffffffffffffffffffffffff1673ffffffffffffffffffffffffffffffffffffffff1681526020019081526020016000206001015403610bfd5760009050610ccb565b60008060008473ffffffffffffffffffffffffffffffffffffffff1673ffffffffffffffffffffffffffffffffffffffff1681526020019081526020016000206002015442610c4c9190611301565b9050600062093a8082610c5f919061119b565b905060648160056000808873ffffffffffffffffffffffffffffffffffffffff1673ffffffffffffffffffffffffffffffffffffffff16815260200190815260200160002060010154610cb2919061112a565b610cbc919061112a565b610cc6919061119b565b925050505b919050565b600073ffffffffffffffffffffffffffffffffffffffff82169050919050565b6000819050919050565b6000610d15610d10610d0b84610cd0565b610cf0565b610cd0565b9050919050565b6000610d2782610cfa565b9050919050565b6000610d3982610d1c565b9050919050565b610d4981610d2e565b82525050565b6000602082019050610d646000830184610d40565b92915050565b600080fd5b6000610d7a82610cd0565b9050919050565b610d8a81610d6f565b8114610d9557600080fd5b50565b600081359050610da781610d81565b92915050565b600060208284031215610dc357610dc2610d6a565b5b6000610dd184828501610d98565b91505092915050565b6000819050919050565b610ded81610dda565b82525050565b6000606082019050610e086000830186610de4565b610e156020830185610de4565b610e226040830184610de4565b949350505050565b6000602082019050610e3f6000830184610de4565b92915050565b610e4e81610dda565b8114610e5957600080fd5b50565b600081359050610e6b81610e45565b92915050565b600060208284031215610e8757610e86610d6a565b5b6000610e9584828501610e5c565b91505092915050565b600082825260208201905092915050565b7f4e6f206465627420746f20726570617900000000000000000000000000000000600082015250565b6000610ee5601083610e9e565b9150610ef082610eaf565b602082019050919050565b60006020820190508181036000830152610f1481610ed8565b9050919050565b7f4e487b7100000000000000000000000000000000000000000000000000000000600052601160045260246000fd5b6000610f5582610dda565b9150610f6083610dda565b9250828201905080821115610f7857610f77610f1b565b5b92915050565b610f8781610d6f565b82525050565b6000606082019050610fa26000830186610f7e565b610faf6020830185610f7e565b610fbc6040830184610de4565b949350505050565b60008115159050919050565b610fd981610fc4565b8114610fe457600080fd5b50565b600081519050610ff681610fd0565b92915050565b60006020828403121561101257611011610d6a565b5b600061102084828501610fe7565b91505092915050565b7f4f75747374616e64696e67206465627400000000000000000000000000000000600082015250565b600061105f601083610e9e565b915061106a82611029565b602082019050919050565b6000602082019050818103600083015261108e81611052565b9050919050565b7f4e6f20636f6c6c61746572616c00000000000000000000000000000000000000600082015250565b60006110cb600d83610e9e565b91506110d682611095565b602082019050919050565b600060208201905081810360008301526110fa816110be565b9050919050565b60006040820190506111166000830185610f7e565b6111236020830184610de4565b9392505050565b600061113582610dda565b915061114083610dda565b925082820261114e81610dda565b9150828204841483151761116557611164610f1b565b5b5092915050565b7f4e487b7100000000000000000000000000000000000000000000000000000000600052601260045260246000fd5b60006111a682610dda565b91506111b183610dda565b9250826111c1576111c061116c565b5b828204905092915050565b7f496e73756666696369656e7420636f6c6c61746572616c000000000000000000600082015250565b6000611202601783610e9e565b915061120d826111cc565b602082019050919050565b60006020820190508181036000830152611231816111f5565b9050919050565b600060208201905061124d6000830184610f7e565b92915050565b60008151905061126281610e45565b92915050565b60006020828403121561127e5761127d610d6a565b5b600061128c84828501611253565b91505092915050565b7f496e73756666696369656e74206c697175696469747900000000000000000000600082015250565b60006112cb601683610e9e565b91506112d682611295565b602082019050919050565b600060208201905081810360008301526112fa816112be565b9050919050565b600061130c82610dda565b915061131783610dda565b925082820390508181111561132f5761132e610f1b565b5b9291505056fea2646970667358221220bcc27238345a8694b5fcfe5116c125ce93eff7f09946110ed1828d3cc9e71cac64736f6c634300081c0033",
  "linkReferences": {},
  "deployedLinkReferences": {}
}